:100000000C9456000C9473000C9473000C947300C1
:100010000C9473000C9473000C9473000C94730094
:100020000C9473000C9473000C9473000C94730084
:100030000C9473000C9473000C9473000C94730074
:100040000C9473000C9473000C9473000C94730064
:100050000C9473000C9473000C9473000C94730054
:100060000C9473000C94AD000C94D0000C947300AD
:100070000C9473000C9473000C9473000C94730034
:100080000C9473000C9473000C9473000C94730024
:100090000C9473000C9473000C9473000C94730014
:1000A0000C9473000C9473000C94730011241FBE05
:1000B000CFEFDAE0DEBFCDBF11E0A0E0B1E0EAE8CB
:1000C000F5E002C005900D92AA31B107D9F711E011
:1000D000AAE1B1E001C01D92AA33B107E1F70E9485
:1000E000EB010C94C3020C940000E1E6F0E080E820
:1000F00080831082089580E885BF85BF0895E1E67A
:10010000F0E080E8808310826A9A6E9A729A769AFA
:10011000549A559A569A579A5C9A5D9A5E9A5F9A43
:1001200085BF85BF089580910B018093CC00E9ECD9
:10013000F0E0808188618083AAECB0E08C918668D1
:100140008C93808180688083109223011092220119
:1001500010922D0110922C0108951F920F920FB64C
:100160000F9211242F938F939F93EF93FF9390916E
:10017000CE00809122018F5F8770809322012091B1
:100180002301EAE1F1E0E80FF11D9083FF91EF9187
:100190009F918F912F910F900FBE0F901F901895E8
:1001A0001F920F920FB60F9211248F939F93EF938C
:1001B000FF9390912C0180912D01981769F0E091A7
:1001C0002D01EF5FE770E0932D01F0E0EC5DFE4F55
:1001D00080818093CE0005C08091C9008F7D80937F
:1001E000C900FF91EF919F918F910F900FBE0F90DB
:1001F0001F90189590912201809123019817D1F3B7
:10020000E0912301EF5FE770E0932301F0E0E65E09
:10021000FE4F80810895282F90912C019F5F977049
:1002200080912D019817E1F3E92FF0E0EC5DFE4F8E
:10023000208390932C018091C90080628093C90033
:100240000895CF93DF93EC0103C021960E940B0128
:1002500088818823D1F7DF91CF9108959091220171
:100260008091230120E0981321E0822F089580914E
:1002700022012091230190E00796821B910967E0FB
:1002800070E00E946B020895809123018093220107
:100290000895E1E8F0E080818E7F80838081826034
:1002A000808380818B7F8083A1E9B0E08C918E7FF9
:1002B0008C938C9182608C938C918B7F8C938081BA
:1002C00080618083808188608083E0E8F0E08081C5
:1002D0008260808380818E7F808320910D013091A8
:1002E0000E01309387002093860080818068808390
:1002F00080818F7B8083109289001092880080819A
:100300008062808380818F7E808310928B00109228
:100310008A0080818860808380818B7F80831092B7
:100320008D0010928C008C9180618C938C918860F0
:100330008C93E0E9F0E080818260808380818E7F11
:10034000808330939700209396008081806880831B
:1003500080818F7B80831092990010929800259A5B
:10036000269A279A3E9A0895AC01E0910D01F091EA
:100370000E01CB01E617F70708F4CF014230510513
:1003800099F04330510520F441305105D9F407C0AC
:100390004330510571F044305105A1F40FC09093E2
:1003A000890080938800089590938B0080938A0041
:1003B000089590938D0080938C00089590939900F8
:1003C0008093980008950E947F000E9493000E94ED
:1003D000490178940895DF92EF92FF920F931F9353
:1003E000DF93CF93CDB7DEB728970FB6F894DEBF73
:1003F0000FBECDBF0E94E30172980EE511E07E01B1
:100400000894E11CF11C84E0D82E80E091E00E9469
:100410002101C801B7014AE050E00E949202C701E1
:100420000E94210188E091E00E9421019091220127
:10043000809123019817D1F3E0912301EF5FE770DA
:10044000E0932301F0E0E65EFE4FE081769AE53727
:1004500039F489E0033C1807ACF50E5F1F4F32C03A
:10046000E43631F4023011056CF1025010402AC01C
:10047000ED3339F489E00136180724F50C591F4F84
:1004800021C0ED3231F404361105E4F00456104079
:1004900019C0E13319F408EC15E014C0E23319F483
:1004A00004E115E00FC0E33319F400EB14E00AC0D7
:1004B000E33719F406E911E005C0E03219F4769843
:1004C0000EE511E081E090E0B8010E94B4018EB128
:1004D0008D258EB99ACF97FB092E07260AD077FD76
:1004E00004D00CD006D000201AF4709561957F4F8F
:1004F0000895F6F7909581959F4F0895AA1BBB1B11
:1005000051E107C0AA1FBB1FA617B70710F0A61B13
:10051000B70B881F991F5A95A9F780959095BC0134
:10052000CD010895FB019F01E8944230C4F04532AB
:10053000B4F44A3029F497FB1EF4909581959F4FAF
:10054000642F77270E947E02805D8A330CF0895DDC
:100550008193CB010097A1F716F45DE251931082CD
:10056000C9010C94B302DC01FC01672F7191772360
:10057000E1F7329704C07C916D9370836291AE175E
:0A058000BF07C8F30895F894FFCFF9
:10058A0044757479203D20000A0D000C00C40977D7
:0A059A0079763030636F6E747200E2
:00000001FF
