:020000020000FC
:1000000016C063C00000000000000000A6C0000091
:10001000A8C0B3C000000000000000000D0A626B21
:10002000626C2D3137613431307230360D0A04E0A4
:100030000EBF0FE50DBF00E008BB00E007BB00E00E
:1000400005BB00E004BB00E002BB0BEB01BB02E020
:1000500003BF02E00EBD772788279927BB27A0E6BC
:1000600000270D93A038E8F389D204E6B02EF9D02A
:10007000F8D0CBD0EAD0CCD0E8D0CDD0E6D001E0DB
:10008000302E02EE202E00E0C02ED02E05E108BF5B
:1000900009BF789403E005BF00E40BBF2AE083FFAB
:1000A000FECF0091790010917A00877F085918409F
:1000B000A8F72A95A1F7F894B1D0B0D0AFD0789432
:1000C0000EE100937B0077D16FC21FB644274BBF70
:1000D00045B740FF1DC0829B3CC042E045BF4CB5C8
:1000E0005DB5742E852E9F7B60917700461B6091D5
:1000F0007800560B403563EC560730F4483C60E01E
:10010000560710F0906425C0BB2019F1BA9421C0A5
:1001100082991FC043E045BF83FD1BC04CB55DB550
:10012000409377005093780096FF13C09F7B471948
:1001300058094093790050937A00403361E15607A3
:1001400018F7403466E05607F8F2886044E6B42EAB
:1001500000C050E45BBF1FBE18951FB67E7F1FBE58
:1001600018951FB67068EE2009F0EA94BB2011F4D0
:10017000FF2701C0BA941FBE18951FB676FD26C092
:10018000906145999F7E422D562D541730F43A9434
:1001900059F451E0352E4A9506C031F03A9421F4D5
:1001A00051E0352E4395242E706474FF03C081FF07
:1001B000939807C075FF03C081FF909802C081FF2C
:1001C0009198422D4853409542BF1BC0422D42BFDB
:1001D0007F7B74FF03C080FF939A07C075FF03C045
:1001E00080FF909A02C080FF919A493318F4826090
:1001F0008E7F07C0423E18F08D7F816002C08D7FE8
:100200008E7F93FD81601FBE189538EC10E509C004
:1002100034EB14E606C030EA18E703C034E618EC05
:1002200000C0002702BF979A909A02B70034E9F7FE
:100230009798909820E1002702BF02B70317E9F7CB
:100240002A95C9F71A9569F708951EE120E100275C
:1002500002BF02B70F3FE9F72A95C9F71A95B1F720
:10026000089510E020E1002702BF02B70F3FE9F731
:100270002A95C9F71A95B1F7089530E03BBF30E0F1
:100280003EBD32E00CB51DB53EBD08958F7E83FFA7
:100290001AC00091790010917A00877F08591840A0
:1002A00010F40027112716950795169507951695B2
:1002B0000795202F283C08F028EC222319F02E3136
:1002C00008F42EE1F22F08958F7D77FF13C07F771A
:1002D00005C04C2D433078F4C39403C0CC2009F002
:1002E000CA9405C04D2D483C28F4D39403C0DD20AA
:1002F00009F0DA940895F8949ACE0F2F0D1908F4A6
:100300000DE110916600112321F410916500103861
:1003100038F09160926012E3011798F0012F11C03C
:1003200095FF05C023E2021710F0022F0AC0103417
:1003300038F09E7F926014E6011718F0012F01C07B
:100340009C7F0095602E08958F7B20916C0010910A
:100350006B0000916A00011B00936A0000916B0022
:10036000020B00936B0000916C00004000936C0046
:1003700020916900109168000091670026951795FB
:100380000795269517950795209369002093680097
:100390002093670020916A00200F20936A0020912B
:1003A0006B00211F20936B0000E020916C00201F48
:1003B00020936C000895C8EEDDEFC0937100D093D8
:1003C00072002FEF3FE120936D0030936E00209379
:1003D0006F0030937000E3E0E09366003FEF3093EE
:1003E00065002FEF20936400089547DF00936000BD
:1003F000109361000C0F1D1F35E039BF1BBD0ABDF6
:10040000716035E139BF30E43BBF00916400109169
:100410006500E09166000093730010937400EE2372
:1004200029F03FEF3093730030937400E6951795F1
:100430000795E69517950795209164003091650022
:10044000E0916600201B310BE040009160001091AC
:100450006100C0916200D09163000093620010932C
:1004600063000C1B1D0B0093750010937600200F8A
:10047000311F10E0E11FEE2361F4332321F032300D
:1004800041F4283930F432E028E9FF2011F40FEF6D
:10049000F02E2093640030936500E0936600E43012
:1004A00008F099DF00916700020F00936700009148
:1004B0006800031F00936800009169000E1F0093FD
:1004C0006900E69537952795E69537952795E69542
:1004D00037952795E6953795279520936D003093AE
:1004E0006E0020936F00309370000895C0916D00EE
:1004F000D0916E007ADF089570FDFECF379800B777
:10050000086000BFD0917400C0917300B6DE0C0F7C
:100510001D1F35E039BF1BBD0ABD716035E139BF14
:1005200030E43BBF0895A9DEC0916F00D091700008
:100530000C0F1D1F25E029BF1BBD0ABD716025E101
:1005400029BF30E43BBF84FDA1DE85FDBDDE87FD14
:10055000D4DE86FDF9DE70FDFECF0895C0917100F6
:10056000D091720042DF0CB50F70D01BDB3B08F45A
:10057000DDEFD093720012D011D00895FDE102EEAC
:10058000202E602E00E002BB01E0302E8160977FBC
:100590009062089508E00A95F1F7089576FDFECF80
:1005A00076FFFECF08950895E9DFFDDF6FDEFE31AF
:1005B000E8F30EE10095602E379800B7086000BFA1
:1005C000332700E002BB0BE10A95F1F73CD141D1A2
:1005D0009B7F00E000937C0000E5E02EECDEBEDFB8
:1005E00094FF10C070FD02C0946013C0D7DF94FD6B
:1005F000F9CF00E000937C00F8D0FDD00DD146DEAD
:10060000ADDF31C070FD02C0946003C0C7DF94FF4E
:10061000F9CFEBD0A3DF94FD08C070FD02C0946059
:100620000BC0BCDF94FFF9CF07C070FD02C094601F
:1006300003C0B4DF94FDF9CFDED028DE8FDF94FF56
:1006400008C070FD02C094600BC0A8DF94FDF9CF14
:1006500007C070FD02C0946003C0A0DF94FFF9CF13
:10066000DBD04BDE7BDF94FD08C070FD02C09460E0
:100670000BC094DF94FFF9CF07C070FD02C09460F7
:1006800003C08CDF94FDF9CFCDD068DF94FF08C0A4
:1006900070FD02C094600BC081DF94FDF9CF07C0EC
:1006A00070FD02C0946003C079DF94FFF9CFCBD016
:1006B0000BDE54DF94FD08C070FD02C094600BC0D7
:1006C0006DDF94FFF9CF07C070FD02C0946003C0D6
:1006D00065DF94FDF9CFBDD0022D023E09F464CF51
:1006E000EE2009F461CF00916600002321F400910F
:1006F0006500003450F000917C0092FD00270395C6
:1007000000937C009B7F0C3330F00FEFF02EEEDE79
:10071000F5DE9F7D02C022DF63CF57D070FF43C05C
:100720005CD070FF40C08064FEDE5FD0DFDEE4DEC0
:1007300054D070FF38C049D070FF35C08061F3DEFF
:100740005AD0D4DED9DE41D070FF2DC046D070FF24
:100750002AC08068E8DE60D0C9DECEDE3ED070FF01
:1007600022C033D070FF1FC0DEDE5CD0BFDEC4DE2F
:100770002CD070FF18C031D070FF15C08062D3DE5E
:1007800062D0B4DEB9DE29D070FF0DC01ED070FF7C
:100790000AC0C9DE5ED0AADEAFDE0091660000238B
:1007A00029F00A9519F09062977F00CF977FFF207C
:1007B00041F0FA9429F00F2D013011F0023009F4C4
:1007C0009860ABCFF894DADE32CC70FF0895459B89
:1007D000FCCFE0DE459BF9CF089570FF0895459961
:1007E000FCCFD8DE4599F9CF0895979880FF959A68
:1007F00003E007B9089504E109BF00007F7D7F7E13
:1008000081FD02C076FD03C0939880FF919A05E1B7
:1008100009BF04E007B90895959880FF949A02E013
:1008200007B9089504E109BF000070627F7E81FD71
:1008300002C076FD03C0919880FF909A05E109BF40
:1008400003E007B90895949880FF979A04E007B9E8
:10085000089504E109BF00007F7D706181FD02C041
:1008600076FD03C0909880FF939A05E109BF02E0EE
:0408700007B9089527
:00000001FF
