:100000000C9434000C9451000C9451000C94510049
:100010000C9451000C94AD010C9451000C945100BF
:100020000C9451000C9451000C9451000C9451000C
:100030000C9482010C9451000C9451000C945100CA
:100040000C9471010C9451000C9451000C945100CB
:100050000C9451000C9451000C9451000C945100DC
:100060000C9451000C94510011241FBECFEFD8E026
:10007000DEBFCDBF11E0A0E0B1E0ECE9FAE002C0E4
:1000800005900D92A431B107D9F711E0A4E1B1E0D8
:1000900001C01D92A033B107E1F70E9404040C9443
:1000A0004C050C940000CF93DF93A89515BCA89A3B
:1000B00016BC10921D0182E085BDF0911901A0E0EF
:1000C00020E030E0C1E0D0E029C0A895A89A16BC95
:1000D00010921D01E0E011C089B190E086239723C2
:1000E000892B11F0E0911D0180911D0190E08E1B84
:1000F0009109429710F05F5F04C080911D018C3E12
:1001000058F3533018F0F62BAF5F03C04F5F453004
:10011000E1F62F5F3F4F2830310551F0BE01022E2E
:1001200002C0660F771F0A94E2F750E040E0CDCF9F
:10013000F09319018A2FDF91CF910895A89590919E
:1001400068009B7F9093680021E030E002C0220F9E
:10015000331F8A95E2F720936D00DA9A109214010A
:100160008091680084608093680015BCA89A16BCD2
:1001700010921D0182E085BD40E050E060E080917A
:100180001D018B3E18F020E030E01FC0809114016B
:100190008823A9F31092140189B190E0822393235C
:1001A000892B31F0409116015091170161E0E7CFA2
:1001B000662329F32091160130911701241B350B7A
:1001C00015BCA89A16BC10921D01C90108950F9381
:1001D0001F9315BCA89A16BC10921D0182E085BD24
:1001E00000E061E070E024C0A895A89A16BC1092C7
:1001F0001D019B01002E02C0220F331F0A94E2F75B
:1002000040E00FC089B190E082239323892B11F045
:1002100040911D0180911D0190E0841B910942973E
:1002200050F480911D018C3E68F312C000E0DCCFD9
:100230000830D0F2FBCF10E0802F0E949E00815446
:1002400096408F5E9A40B8F71F5F1330A8F302C044
:100250000F5FEECF1F910F910895A89588EB9BE05B
:1002600090931F0180931E019093210180932001A0
:1002700028E037E030932301209322019093250159
:100280008093240190932701809326019093290164
:100290008093280190932B0180932A0130932D01A4
:1002A00020932C0188ED99E590932F0180932E01E6
:1002B000089520912C0130912D01019781F0369500
:1002C0002795C901A0E0B0E0875D9640A040B0400E
:1002D000815C9140A040B04010F429980895299A7B
:1002E00008951F920F920FB60F9211248F93809151
:1002F0001D018F5F80931D018F910F900FBE0F9096
:100300001F9018951F920F920FB60F9211248F9382
:100310009F93EF93FF937894809115018F5F809363
:10032000150180911501893010F010921501E091AE
:100330001501F0E0EE0FFF1FE25EFE4F808191811C
:100340009093890080938800FF91EF919F918F9106
:100350000F900FBE0F901F9018951F920F920FB61F
:100360000F9211248F939F9386B580931C01A89BB5
:1003700008C0A89A80911D018F5F80931D01109283
:100380001C0180911C0190911D0190931701809395
:10039000160181E0809314019F918F910F900FBE01
:1003A0000F901F901895CF93DF93F89415BCA89ADF
:1003B00016BC10921D0183E38093800088E1809336
:1003C000810088ED99E5909389008093880088E505
:1003D00092E090938B0080938A0080916F008460FC
:1003E00080936F0086B3856086BB80916E008160CC
:1003F00080936E00A89A2898209A289A2998219A82
:10040000299A24982C9A1AB89FEF9BB988E0809378
:1004100015019093120188E998E09093110180935F
:100420001001C0EFD3E008C083E0CF3FD80718F435
:10043000CE010E9429052196CE01805FE82FF0E0D1
:10044000E050FF4F6081662379F78FEF93E00E94C1
:1004500029057894289815BCA89A16BC10921D01FD
:1004600082E085BD90E0A895A89A16BC10921D0167
:1004700080911D018B3EE0F39F5F9330A1F715BC87
:10048000A89A16BC10921D01289A229ADF91CF914A
:100490000895CF93DF93C4E1D0E0CE0168E978E01E
:1004A0000E943705229680E0CA32D807B1F7CAE227
:1004B000D0E0CE016FEF0E942905219680E0C53380
:1004C000D807B9F78FEF8093120188E998E09093ED
:1004D000110180931001DF91CF9108950F931F9325
:1004E000CF93DF93A89515BCA89A16BC10921D0156
:1004F00082E085BD90E01C9B02C090E001C09F5F40
:1005000080911D018C3E08F0C2C09436A0F3AEC0AD
:10051000813009F064C080911901482F50E020E03B
:1005200030E0CA01022E02C0959587950A94E2F741
:1005300080FF0FC020931201CAE2D0E0CE0160918B
:1005400012010E942905219640E0C533D407B1F776
:1005500094C02F5F3F4F2830310519F740C080917C
:1005600012010E949E009C0180549640815F9A4037
:1005700018F4C20FD31F0F5F1F5F1A3081F7CE012F
:10058000602F70E00E940705A895CB0188549D401C
:10059000895E934078F4C4E1D0E08B010E5C1F4F7C
:1005A000CE01B8010E943705229680E0CA32D807F2
:1005B000B9F769C0CB0180549640895E934078F4C6
:1005C000C4E1D0E08B0102531040CE01B8010E947B
:1005D0003705229680E0CA32D807B9F754C00E9486
:1005E000490232E022E021C0289A90E0A89515BC8B
:1005F000A89A16BC10921D0125BD80911D018B3E4D
:10060000E0F39F5F933091F7289890E0A89515BC90
:10061000A89A16BC10921D0135BD80911D018B3E1C
:10062000E0F39F5F9E3191F7DFCF289A90E0A89585
:1006300015BCA89A16BC10921D0125BD80911D0104
:100640008B3EE0F39F5F9E3191F7289890E0A8954C
:1006500015BCA89A16BC10921D0135BD80911D01D4
:100660008B3EE0F39F5F933091F7DFCFA8958091A9
:100670001801823008F0B3CF4BCFA895C0E0D0E08E
:1006800010E000E06CCF2C9832E022E0ADCFDF919B
:10069000CF911F910F9108956F927F928F929F92A9
:1006A000AF92BF92CF92DF92EF92FF920F931F9380
:1006B000CF93DF93A8956AE2E62E60E0F62E8701DD
:1006C0005BE0852E912C8E0C9F1CC8010E941B059F
:1006D000C82EA82EBB24CAE2D0E0DD24CE010E94A1
:1006E0001B0590E08A159B0509F4D394219645E3F8
:1006F000642E40E0742E8C169D0681F725E02D15A2
:10070000A8F488E0A816B10408F06DC0C0921201E8
:100710009AE09D1588F0C7016C2D0E942905089468
:10072000E11CF11C6E147F04B1F706C00F5F1F4F70
:100730008016910651F657C004E110E0680136E1D9
:10074000832E912C800E911EC6010E9423057C01F0
:10075000C4E1D0E0BB24CE010E9423058E159F0585
:1007600009F4B39422962AE2622E20E0722E8C16AF
:100770009D0689F725E02B1570F5C70188549D402B
:10078000895E934088F4F0921101E09210018AE0B2
:100790008B1558F1C801B7010E9437050E5F1F4F36
:1007A00060167106B9F721C0C70180549640895E72
:1007B0009340C8F4F0921101E09210018AE08B1589
:1007C000A0F0C801B7010E9437050E5F1F4F6016E9
:1007D0007106B9F70AC082E090E0C80ED91E8C14E9
:1007E0009D0409F0B1CF0E944902DF91CF911F9182
:1007F0000F91FF90EF90DF90CF90BF90AF909F90C0
:100800008F907F906F900895DF93CF93CDB7DEB731
:1008100060970FB6F894DEBF0FBECDBF88E10FB66C
:10082000F89480936000109260000FBE2BE088E186
:1008300090E00FB6F894A895809360000FBE2093C7
:100840006000A8950E94D3010E944C030E942D01D4
:100850000E94E7000E945300809318010E946E02DC
:10086000809168008B7F809368009091190190932C
:100870006D00DA9A10921401809168008460809370
:10088000680015BCA89A16BC10921D0182E085BDB7
:1008900019B1192315BCA89A16BC10921D0185BD6B
:1008A000AA24DD24CC24EE24E39490E1B92EFF2485
:1008B0001E010894211C311C88ED482E89E5582E14
:1008C00008E5602E02E0702EA89580901901A89A84
:1008D00016BC10921D01082D4BC080911D018B3E4E
:1008E00008F049C0809114018823B9F359B150230D
:1008F00010921401952E9126D10141E060E070E044
:10090000842F892161F1842F852349F0809116017C
:100910009091170111969C938E93A42A20C08A2D42
:100920008423E9F0842F80950823209116013091CB
:1009300017018D919C911197281B390BC901815486
:1009400096408F5E9A4058F4EE2049F4F894FB01EB
:10095000EE0FFF1FE25EFE4F3183208378946F5FBE
:100960007F4F1296152F6830710511F0440FC8CFD4
:10097000002309F0B2CFF394FB1428F085B191E085
:10098000892785B9FF24002349F5E1E0EE16B9F582
:10099000C39484E08C1598F5809181008D7F8093BD
:1009A0008100109285001092840098E090931501C8
:1009B000509289004092880070928B0060928A0069
:1009C00086B3856086BB80918100826080938100C0
:1009D000289ADD24EE24E4E0BE2E0FC019B11821C0
:1009E000EE2079F4D394E4E0ED1558F40E942D0143
:1009F000CC24EE24E39470E1B72EFF2403C0DD2461
:100A000001C0CC248E2D90E00E9459015DCFAA1B1D
:100A1000BB1B51E107C0AA1FBB1FA617B70710F0E9
:100A2000A61BB70B881F991F5A95A9F7809590951B
:100A3000BC01CD010895F999FECF92BD81BDF89A10
:100A4000992780B50895A8E1B0E042E050E00C9409
:100A50003E05262FF999FECF1FBA92BD81BD20BD5C
:100A60000FB6F894FA9AF99A0FBE019608950E946B
:100A70002905272F0C942A05DC01CB01FC01F999EB
:100A8000FECF06C0F2BDE1BDF89A319600B40D92DA
:0C0A900041505040B8F70895F894FFCF93
:100A9C00536572766F3270706D2056342E32300082
:040AAC009808FF00A7
:00000001FF
