:100000000C9456000C9473000C9473000C947300C1
:100010000C9473000C9473000C9473000C94730094
:100020000C9473000C9473000C9473000C94730084
:100030000C9473000C9473000C9473000C94730074
:100040000C9473000C9473000C9473000C94730064
:100050000C9473000C9473000C9473000C94730054
:100060000C9473000C94A9000C94CC000C947300B5
:100070000C9473000C9473000C9473000C94730034
:100080000C9473000C9473000C9473000C94730024
:100090000C9473000C9473000C9473000C94730014
:1000A0000C9473000C9473000C94730011241FBE05
:1000B000CFEFDAE0DEBFCDBF11E0A0E0B1E0E8E9CC
:1000C000F8E002C005900D92A832B107D9F711E00F
:1000D000A8E2B1E001C01D92A134B107E1F70E948E
:1000E00004040C944A040C940000E1E6F0E080E87B
:1000F00080831082089580E885BF85BF0895E1E67A
:10010000F0E080E8808310826A9A6E9A809A819AE1
:10011000729A769A889A899A85BF85BF0895809148
:1001200019018093CC00E9ECF0E080818861808344
:10013000AAECB0E08C9186688C9380818068808383
:10014000109231011092300110923B0110923A014D
:1001500008951F920F920FB60F9211242F938F9331
:100160009F93EF93FF939091CE00809130018F5F2A
:1001700087708093300120913101E8E2F1E0E80FCF
:10018000F11D9083FF91EF919F918F912F910F908F
:100190000FBE0F901F9018951F920F920FB60F92DF
:1001A00011248F939F93EF93FF9390913A01809145
:1001B0003B01981769F0E0913B01EF5FE770E09336
:1001C0003B01F0E0EE5CFE4F80818093CE0005C0E5
:1001D0008091C9008F7D8093C900FF91EF919F911D
:1001E0008F910F900FBE0F901F9018959091300136
:1001F000809131019817D1F3E0913101EF5FE77001
:10020000E0933101F0E0E85DFE4F80810895282FF2
:1002100090913A019F5F977080913B019817E1F3AD
:10022000E92FF0E0EE5CFE4F208390933A0180913D
:10023000C90080628093C9000895CF93DF93EC01D9
:1002400003C021960E94070188818823D1F7DF919E
:10025000CF910895909130018091310120E0981361
:1002600021E0822F0895809130012091310190E0AA
:100270000796821B910967E070E00E9423040895AD
:1002800080913101809330010895E1E8F0E08081B0
:100290008E7F808380818260808380818B7F80835A
:1002A000A1E9B0E08C918E7F8C938C9182608C93CD
:1002B0008C918B7F8C93808180618083808188602A
:1002C0008083E0E8F0E080818260808380818E7F9F
:1002D000808320911B0130911C0130938700209373
:1002E000860080818068808380818F7B80831092EC
:1002F00089001092880080818062808380818F7E57
:10030000808310928B0010928A00808188608083A5
:1003100080818B7F808310928D0010928C008C9155
:1003200080618C938C9188608C93E0E9F0E080810F
:100330008260808380818E7F8083309397002093BA
:10034000960080818068808380818F7B808310927B
:10035000990010929800259A269A279A3E9A089515
:10036000AC01E0911B01F0911C01CB01E617F707EE
:1003700008F4CF014230510599F04330510520F483
:1003800041305105D9F407C04330510571F0443074
:100390005105A1F40FC090938900809388000895BF
:1003A00090938B0080938A00089590938D008093A2
:1003B0008C000895909399008093980008958091FF
:1003C00064008B7F8093640084B1876084B983E587
:1003D0008CBD80ED97E028EC30E0F9013197F1F722
:1003E0000197D9F708954798805E8EBD0DB407FE3A
:1003F000FDCF20E030E00AC0FB01E20FF31F808157
:100400008EBD0DB407FEFDCF2F5F3F4F241735077C
:100410009CF3479A0895AC01479880EA8EBD0DB4CD
:1004200007FEFDCF20E030E00AC0FA01E20FF31F23
:1004300080818EBD0DB407FEFDCF2F5F3F4F261785
:1004400037079CF3479A089547988EBD0DB407FE71
:10045000FDCF20E030E09FEF0BC09EBD0DB407FE46
:10046000FDCF8EB5FB01E20FF31F80832F5F3F4F5F
:100470002417350794F3479A08959C01AB018BE04C
:10048000B9010E94F3010895479881EE8EBD0DB425
:1004900007FEFDCF479A0895479882EE8EBD0DB4B2
:1004A00007FEFDCF479A0895DF93CF930F92CDB704
:1004B000DEB78BE3898380E0BE016F5F7F4F41E051
:1004C00050E00E94F30180EA9FE00197F1F7289A3B
:1004D0000F90CF91DF910895289808952F923F9221
:1004E0004F925F926F927F928F929F92AF92BF9244
:1004F000CF92DF92EF92FF920F931F93DF93CF93F0
:1005000000D000D0CDB7DEB75C016B014C831982FF
:10051000289800E07E010894E11CF11C32E0232EB3
:10052000312C2C0E3D1E20EA422E2FE0522E90E45C
:10053000692E9FE1792E83E0882E912C8C0E9D1ED2
:1005400040C00E94440280E2898387E0B70141E015
:1005500050E00E94F30180E1B60145E050E00E94C6
:10056000F3018AE0B60145E050E00E94F3018AE31E
:100570008A8380E0B10141E050E00E94F301609184
:100580003C01C50170E00E940B02289AC20101974C
:10059000F1F72898C3010197F1F71B8287E0B401B6
:1005A00041E050E00E9424021B81107280E18983A7
:1005B00087E0B70141E050E00E94F301112339F4D4
:1005C0000F5F8C81081708F4BCCF10E008C080E2F0
:1005D000898387E0B70141E050E00E94F3010E9467
:1005E0005402812F111181E00F900F900F900F9006
:1005F000CF91DF911F910F91FF90EF90DF90CF90FF
:10060000BF90AF909F908F907F906F905F904F9032
:100610003F902F90089541E00E946E020895DF936D
:10062000CF930F92CDB7DEB78FEF898387E0BE01FE
:100630006F5F7F4F41E050E00E942402298130E04B
:1006400046E0369527954A95E1F721703070C9014B
:100650000F90CF91DF910895DF93CF930F92CDB795
:10066000DEB78FEF898387E0BE016F5F7F4F41E088
:1006700050E00E9424028981282F30E02E703070D3
:100680002115310511F021E030E0C9010F90CF9123
:10069000DF910895DF93CF930F92CDB7DEB7FC01C2
:1006A00028988FEF8083479881E68EBD0DB407FEB2
:1006B000FDCF20E030E009C080818EBD0DB407FE83
:1006C000FDCF8EB581932F5F3F4F80913C0190E02D
:1006D000281739078CF3479A80EA9FE00197F1F7D2
:1006E0000E942C03892B51F080E4898387E0BE01AE
:1006F0006F5F7F4F41E050E00E94F3010E9454027F
:100700000F90CF91DF910895DF93CF930F92CDB7E4
:10071000DEB78FEF898387E1BE016F5F7F4F41E0D6
:1007200050E00E942402298130E0369527952170FF
:100730003070C9010F90CF91DF910895CF93DF936F
:10074000EC0103C0CE010E944A030E940F03892BD3
:10075000C9F7DF91CF910895EF92FF920F931F9306
:10076000DF93CF930F92CDB7DEB77C0160933C014E
:1007700088EE93E028EC30E0F9013197F1F701972A
:10078000D9F70E94DF013F9A209A88E3898380E0AD
:100790008E010F5F1F4FB80141E050E00E94F3014E
:1007A00080913C01898382E1B80141E050E00E94E0
:1007B000F30183E0898381E0B80141E050E00E94C9
:1007C000F301198284E0B80141E050E00E94F30196
:1007D000C70165E070E00E943D020E9454020F9044
:1007E000CF91DF911F910F91FF90EF9008950E949C
:1007F0007F000E948F000E9445018DE191E062E040
:100800000E94AC0378940895CF93DF930E94F7037E
:1008100080E091E00E941D017298C0E0D0E0CE011E
:1008200064E670E00E9423049093400180933F01AE
:10083000219676988FE391E062E271E04AE00E94AF
:100840006E02769AECCF97FB092E07260AD077FD29
:1008500004D00CD006D000201AF4709561957F4F1B
:100860000895F6F7909581959F4F0895AA1BBB1B9D
:1008700051E107C0AA1FBB1FA617B70710F0A61BA0
:10088000B70B881F991F5A95A9F780959095BC01C1
:08089000CD010895F894FFCF9B
:10089800436F6E74726F6C6C657220496E6974690F
:1008A800616C697A65640A0D000C00204E636F6EF6
:0808B80074727779763030008C
:00000001FF
