:100000000C9456000C9473000C9473000C947300C1
:100010000C9473000C9473000C9473000C94730094
:100020000C9473000C9497090C9473000C94730057
:100030000C9473000C9473000C9473000C94730074
:100040000C9473000C9473000C9473000C94730064
:100050000C9473000C9473000C9473000C941F0A9E
:100060000C9473000C94AD000C94D2000C947300AB
:100070000C9473000C9473000C9473000C94730034
:100080000C9473000C9473000C9473000C94730024
:100090000C9473000C9473000C9473000C94730014
:1000A0000C9473000C9473000C94730011241FBE05
:1000B000CFEFDAE0DEBFCDBF12E0A0E0B1E0ECEAC6
:1000C000F6E202C005900D92A232B107D9F716E010
:1000D000A2E2B2E001C01D92A63FB107E1F70E9483
:1000E000BE0B0C9454130C940000E1E6F0E080E8A1
:1000F00080831082089580E885BF85BF0895E1E67A
:10010000F0E080E8808310826A9A6E9A729A769AFA
:10011000549A559A569A579A5C9A5D9A5E9A5F9A43
:1001200085BF85BF0895809100018093CC00E9ECE4
:10013000F0E0808188618083AAECB0E08C918668D1
:100140008C938081806880831092BD041092BC04DF
:100150001092BF061092BE0608951F920F920FB61E
:100160000F9211248F939F93EF93FF939091CE0062
:10017000E091BC04EF5FE093BC048091BD04E817FC
:1001800021F48091BD048093BC04F0E0E454FD4F61
:100190009083FF91EF919F918F910F900FBE0F90E1
:1001A0001F9018951F920F920FB60F9211248F93E4
:1001B0009F93EF93FF939091BE068091BF0698178F
:1001C00061F0E091BF06EF5FE093BF06F0E0E2541C
:1001D000FB4F80818093CE0005C08091C9008F7D48
:1001E0008093C900FF91EF919F918F910F900FBE67
:1001F0000F901F9018959091BC048091BD049817A2
:10020000D1F3E091BD04EF5FE093BD04F0E0E4546E
:10021000FD4F80810895282F9091BE069F5F8091A9
:10022000BF069817E1F3E92FF0E0E254FB4F20837B
:100230009093BE068091C90080628093C9000895A2
:10024000CF93DF93EC0103C021960E940B018881BC
:100250008823D1F7DF91CF9108959091BC048091CC
:10026000BD0420E0981321E0822F08958091BC0402
:100270002091BD0490E081509E4F821B91096FEF49
:1002800071E00E94C51208958091BD048093BC0462
:100290000895E1E8F0E080818E7F80838081826034
:1002A000808380818B7F8083A1E9B0E08C918E7FF9
:1002B0008C938C9182608C938C918B7F8C938081BA
:1002C00080618083808188608083E0E8F0E08081C5
:1002D0008260808380818E7F8083209102013091B3
:1002E000030130938700209386008081806880839B
:1002F00080818F7B8083109289001092880080819A
:100300008062808380818F7E808310928B00109228
:100310008A0080818860808380818B7F80831092B7
:100320008D0010928C008C9180618C938C918860F0
:100330008C93E0E9F0E080818260808380818E7F11
:10034000808330939700209396008081806880831B
:1003500080818F7B80831092990010929800259A5B
:10036000269A279A3E9A089527E0613D720718F071
:1003700060ED77E006C023E0683E720710F468EE97
:1003800073E08230910589F08330910518F401976C
:10039000D1F406C08330910569F00497A1F40FC031
:1003A0007093890060938800089570938B00609328
:1003B0008A00089570938D0060938C000895709367
:1003C0009900609398000895809164008B7F8093DA
:1003D000640084B1876084B983E58CBD80ED97E0CB
:1003E00028EC30E0F9013197F1F70197D9F708953A
:1003F0004798805E8EBD0DB407FEFDCF20E030E053
:100400000AC0FB01E20FF31F80818EBD0DB407FE11
:10041000FDCF2F5F3F4F241735079CF3479A089570
:10042000AC01479880EA8EBD0DB407FEFDCF20E0F9
:1004300030E00AC0FA01E20FF31F80818EBD0DB4D7
:1004400007FEFDCF2F5F3F4F261737079CF3479AD4
:10045000089547988EBD0DB407FEFDCF20E030E033
:100460009FEF0BC09EBD0DB407FEFDCF8EB5FB0107
:10047000E20FF31F80832F5F3F4F2417350794F35C
:10048000479A08959C01AB018BE0B9010E94F801E5
:100490000895479881EE8EBD0DB407FEFDCF479AB3
:1004A0000895479882EE8EBD0DB407FEFDCF479AA2
:1004B0000895DF93CF930F92CDB7DEB78BE3898397
:1004C00080E0BE016F5F7F4F41E050E00E94F80185
:1004D00080EA9FE00197F1F7289A0F90CF91DF9182
:1004E0000895289808952F923F924F925F926F92AD
:1004F0007F928F929F92AF92BF92CF92DF92EF92B4
:10050000FF920F931F93DF93CF9300D000D0CDB70E
:10051000DEB75C016B014C831982289800E07E01F4
:100520000894E11CF11C32E0232E312C2C0E3D1ED0
:1005300020EA422E2FE0522E90E4692E9FE1792E80
:1005400083E0882E912C8C0E9D1E40C00E94490293
:1005500080E2898387E0B70141E050E00E94F80122
:1005600080E1B60145E050E00E94F8018AE0B60162
:1005700045E050E00E94F8018AE38A8380E0B101FF
:1005800041E050E00E94F8016091C006C50170E0B2
:100590000E941002289AC2010197F1F72898C3011E
:1005A0000197F1F71B8287E0B40141E050E00E941F
:1005B00029021B81107280E1898387E0B70141E045
:1005C00050E00E94F801112339F40F5F8C81081765
:1005D00008F4BCCF10E008C080E2898387E0B7014F
:1005E00041E050E00E94F8010E945902812F111150
:1005F00081E00F900F900F900F90CF91DF911F919E
:100600000F91FF90EF90DF90CF90BF90AF909F90B1
:100610008F907F906F905F904F903F902F900895B4
:1006200041E00E9473020895DF93CF930F92CDB7FC
:10063000DEB78FEF898387E0BE016F5F7F4F41E0B8
:1006400050E00E942902298130E046E03695279546
:100650004A95E1F721703070C9010F90CF91DF9179
:100660000895DF93CF930F92CDB7DEB78FEF8983D5
:1006700087E0BE016F5F7F4F41E050E00E9429029A
:100680008981282F30E02E7030702115310511F04E
:1006900021E030E0C9010F90CF91DF910895DF9301
:1006A000CF930F92CDB7DEB7FC0128988FEF8083F0
:1006B000479881E68EBD0DB407FEFDCF20E030E007
:1006C00009C080818EBD0DB407FEFDCF8EB581932C
:1006D0002F5F3F4F8091C00690E0281739078CF3B9
:1006E000479A80EA9FE00197F1F70E943103892B36
:1006F00051F080E4898387E0BE016F5F7F4F41E066
:1007000050E00E94F8010E9459020F90CF91DF91B2
:100710000895DF93CF930F92CDB7DEB78FEF898324
:1007200087E1BE016F5F7F4F41E050E00E942902E8
:10073000298130E03695279521703070C9010F90DE
:10074000CF91DF910895CF93DF93EC018091680002
:100750008E7F8093680003C0CE010E944F030E94E9
:100760001403892BC9F78091680081608093680029
:10077000DF91CF910895EF92FF920F931F93DF9334
:10078000CF930F92CDB7DEB77C016093C00688EEA1
:1007900093E028EC30E0F9013197F1F70197D9F7B0
:1007A0000E94E4013F9A209A88E3898380E08E01C9
:1007B0000F5F1F4FB80141E050E00E94F8018091A7
:1007C000C006898382E1B80141E050E00E94F8014F
:1007D00083E0898381E0B80141E050E00E94F801A4
:1007E000198284E0B80141E050E00E94F801C7019D
:1007F00065E070E00E9442020E9459020F90CF9182
:10080000DF911F910F91FF90EF900895ECE7F0E0DA
:10081000808180648083EEE7F0E08081836F808355
:10082000EAE7F0E080818668808308959C018091EA
:100830007C00807E80937C0024303105D9F0253007
:10084000310538F42115310571F02130310519F5E4
:100850000DC026303105B1F02630310578F0273053
:100860003105C9F413C080917C0013C080917C00D5
:1008700081600FC080917C0084600BC080917C00FF
:10088000856007C080917C00866003C080917C00F9
:10089000876080937C0080917A00806480937A00E6
:1008A00080917A0084FFFCCF80917A0080618093F0
:1008B0007A002091780030917900C90108959091D3
:1008C0007C0080917C00807E80937C0080917C0005
:1008D000806C80937C0080917C008F6180937C0091
:1008E00080917A00806480937A0080917A0084FFFE
:1008F000FCCF80917A00806180937A0080917A00A9
:10090000806480937A0080917A0084FFFCCF80918C
:100910007A00806180937A0090937C002091780027
:1009200030917900C90108959093B5028093B40283
:100930000895909331028093300270933302609354
:100940003202509335024093340208959C01809105
:10095000B602813089F4C901880F991F820F931F55
:10096000880F991F64E170E00E94C51260557B4FAB
:100970007093A9026093A80208951F93893609F421
:10098000D0C08A36C8F4823309F495C0833350F45A
:100990008D3209F478C0813309F48AC0803209F0BD
:1009A000D2C049C0843309F490C0843308F48AC0AB
:1009B0008D3309F0C8C06DC08F3609F492C08037FE
:1009C00038F48B3609F4A0C08C3609F0BCC096C050
:1009D000833739F0853709F4AAC0803709F0B3C0EE
:1009E0007AC01091B702113009F0ADC082E594E0F1
:1009F0009093A9028093A80281E090E09093B502C1
:100A00008093B40262E574E00E94B40182E090E059
:100A100062E574E00E94B40183E090E062E574E076
:100A20000E94B40184E090E062E574E00E94B401A9
:100A30001093B60288C081E08093B7021092B5028D
:100A40001092B40288EE93E09093A9028093A802DA
:100A500081E090E068EE73E00E94B40182E090E0F3
:100A600068EE73E00E94B40183E090E068EE73E00A
:100A70000E94B40184E090E068EE73E00E94B4014B
:100A80001092B60260C08091AA029091AB020A97C0
:100A90000AC08091B602813009F055C08091AA0247
:100AA0009091AB020A969093AB028093AA024BC03E
:100AB00081E090E002C082E090E062EE74E00E948B
:100AC000B40141C083E090E0F8CF84E090E062EEB2
:100AD00074E00E94B401809108019091090101968F
:100AE00008C08091080190910901181619065CF55B
:100AF0000197909309018093080125C080910A0114
:100B000090910B01029608C080910A0190910B010F
:100B100082309105C4F0029790930B0180930A01F3
:100B200012C08091040190910501019608C0809146
:100B3000040190910501181619062CF40197909361
:100B40000501809304011F910895FC018581968120
:100B50006AE070E00E94C5127093450260934402FF
:100B60008181928166E470E00E94C5127093470211
:100B7000609346028381948166E470E00E94C5120E
:100B8000709349026093480208952F923F924F92CA
:100B90005F926F927F928F929F92AF92BF92CF920D
:100BA000DF92EF92FF920F931F93DF93CF9300D0CA
:100BB000CDB7DEB71C018091B4029091B5020197C8
:100BC00009F04DC3D1018D919C9180529E44CC245B
:100BD000DD24C81AD90AD0925302C0925202609101
:100BE000220270912302882777FD8095982F0E941A
:100BF000A50F7B018C01B601882777FD8095982F82
:100C00000E94A50F9B01AC01C801B7010E94CF0D46
:100C100020E030E44CE156E40E94C90E0E9403102B
:100C200070936F0260936E02409004015090050132
:100C3000461657062CF450926F0240926E020BC07B
:100C400022273327241935096217730724F43093B8
:100C50006F0220936E0280907002909071028C0C53
:100C60009D1C9092710280927002F10182859385A1
:100C700080529E44909373028093720243968797AA
:100C800020F410927302109272026091060170912A
:100C90000701882777FD8095982F0E94A50F7B017B
:100CA0008C016091720270917302882777FD8095A4
:100CB000982F0E94A50F9B01AC01C801B7010E94AB
:100CC000CF0D20E030E44CE156EC0E94C90E20E04C
:100CD00030E040E050E00E94A20D0E9403107093AB
:100CE000730260937202653671051CF084E690E031
:100CF00006C0FFEF6C397F0734F48CE99FEF9093C7
:100D000073028093720260916E0270916F02882765
:100D100077FD8095982F0E94A50F5B016C01609173
:100D2000240270912502882777FD8095982F0E94D4
:100D3000A50F7B018C01B401882777FD8095982F42
:100D40000E94A50F9B01AC01C801B7010E94CF0D05
:100D500020E030E44CE156E40E94C90E9B01AC0156
:100D6000C601B5010E94A20D7B018C016091720247
:100D700070917302882777FD8095982F0E94A50FA8
:100D80009B01AC01C801B7010E94A20D7B018C013F
:100D90006091440270914502882777FD8095982FD5
:100DA0000E94A50F9B01AC01C801B7010E94A20DD2
:100DB0000E9403107A8369837093750260937402B2
:100DC000D10112968D919C91139780529E44882454
:100DD0009924881A990A909255028092540260913F
:100DE000080170910901882777FD8095982F0E944E
:100DF000A50F7B018C01B401882777FD8095982F82
:100E00000E94A50F9B01AC01C801B7010E94CF0D44
:100E100020E030E44CE156E40E94C90E0E94031029
:100E20007093770260937602461657062CF4509220
:100E30007702409276020BC0222733272419350906
:100E40006217730724F43093770220937602C090E0
:100E50007802D0907902C80CD91CD0927902C09245
:100E60007802F1018085918580529E44909581950C
:100E70009F4F90937B0280937A024396879720F44A
:100E800010927B0210927A0260910A0170910B011C
:100E9000882777FD8095982F0E94A50F7B018C01F4
:100EA00060917A0270917B02882777FD8095982F58
:100EB0000E94A50F9B01AC01C801B7010E94CF0D94
:100EC00020E030E44CE156E40E94C90E7B018C0125
:100ED0006091460270914702882777FD8095982F90
:100EE0000E94A50F9B01AC01C801B7010E94A20D91
:100EF0000E9403105B0170937B0260937A02609101
:100F0000760270917702882777FD8095982F0E944E
:100F1000A50F3B014C0160912602709127028827A2
:100F200077FD8095982F0E94A50F7B018C01B6015B
:100F3000882777FD8095982F0E94A50F9B01AC0113
:100F4000C801B7010E94CF0D20E030E44CE156E427
:100F50000E94C90E9B01AC01C401B3010E94A20D05
:100F60007B018C01CC24B7FCC094DC2CC601B501FC
:100F70000E94A50F9B01AC01C801B7010E94A20D00
:100F80000E9403104B0170937D0260937C02D1019B
:100F900014968D919C91159780529E44CC24DD240B
:100FA000C81AD90AD0925702C092560260910C0119
:100FB00070910D01882777FD8095982F0E94A50FCD
:100FC0007B018C01B601882777FD8095982F0E94C0
:100FD000A50F9B01AC01C801B7010E94CF0D20E015
:100FE00030E44CE156E40E94C90E0E940310709355
:100FF0007F0260937E02461657062CF450927F02C1
:1010000040927E020BC0222733272419350962172C
:10101000730724F430937F0220937E024090800275
:10102000509081024C0C5D1C5092810240928002D3
:10103000F1018681978180529E4490938302809330
:1010400082024396879720F41092830210928202C4
:1010500060917E0270917F02882777FD8095982F9E
:101060000E94A50F5B016C0160912802709129021A
:10107000882777FD8095982F0E94A50F7B018C0112
:10108000B201882777FD8095982F0E94A50F9B01BC
:10109000AC01C801B7010E94CF0D20E030E44CE163
:1010A00056E40E94C90E9B01AC01C601B5010E9425
:1010B000A20D5B016C0160910E0170910F018827F8
:1010C00077FD8095982F0E94A50F7B018C01609180
:1010D000820270918302882777FD8095982F0E9465
:1010E000A50F9B01AC01C801B7010E94CF0D20E004
:1010F00030E44CE156E40E94C90E9B01AC01C601EC
:10110000B5010E94A20D7B018C0160914802709193
:101110004902882777FD8095982F0E94A50F9B0193
:10112000AC01C801B7010E94A20D0E940310AB01DF
:1011300070938502609384022091AA023091AB02E1
:101140008091A8029091A902280F391F89819A8164
:10115000820F931F841B950B9093AD028093AC027A
:10116000F401E20FF31F69817A81E61BF70BF0931C
:10117000AF02E093AE02460F571F420F531F50932A
:10118000B1024093B00228193909261B370B30935E
:10119000B3022093B20276E0813497071CF080E41A
:1011A00096E005C08255944034F482E594E0909333
:1011B000AD028093AC02B6E0E134FB071CF080E4A2
:1011C00096E005C0E255F44034F482E594E0909353
:1011D000AF028093AE0276E0413457071CF080E402
:1011E00096E005C04255544034F482E594E0909373
:1011F000B1028093B002A6E021343A071CF080E4EB
:1012000096E005C02255344034F482E594E0909392
:10121000B3028093B2026091AC027091AD0281E0A2
:1012200090E00E94B4016091AE027091AF02665FDF
:101230007F4F82E090E00E94B4016091B002709113
:10124000B102685F7F4F83E090E00E94B40160913B
:10125000B2027091B30284E090E00E94B4010F905A
:101260000F90CF91DF911F910F91FF90EF90DF9042
:10127000CF90BF90AF909F908F907F906F905F9036
:101280004F903F902F900895893609F448C08A36D0
:10129000A8F48333C1F1843350F4813381F1823374
:1012A00080F5803231F18D3209F040C026C08D3397
:1012B00011F18736B9F08433C9F527C0803739F189
:1012C000813738F48C3639F18F3619F18B3671F558
:1012D00024C0833761F0853731F1823739F58EB11B
:1012E00090E402C08EB194E089278EB9089583E717
:1012F00017C080E215C08DE313C08DE211C081E3F9
:101300000FC082E30DC083E30BC084E309C080E714
:1013100007C08FE605C08CE603C08BE601C089E6F6
:101320000E94BD04089585E70E94BD0408951F92A0
:101330000F920FB60F9211242F933F934F935F9309
:101340006F937F938F939F93AF93BF93EF93FF938D
:101350001C9908C08DEC96E00E94A3038091CD06F5
:101360000E944409FF91EF91BF91AF919F918F919E
:101370007F916F915F914F913F912F910F900FBE91
:101380000F901F9018950E947F000E9493000E946A
:1013900049010E94060480E191E067E10E94BB03DD
:1013A0008091680081608093680010926B0080914A
:1013B0006B00806180936B0085B5846085BD85B5C9
:1013C000816085BD80916E00816080936E0078940D
:1013D0002C980E941403892B21F08DEC96E00E943A
:1013E000A3031092DC061092DB061092D80610922E
:1013F000D7061092DA061092D9061092DE061092E5
:10140000DD06089584E090E00E941604A0E0B0E0BC
:10141000BC01CD010E94571020E038EB40E855E4B4
:101420000E94CF0D20E030E44CE156E40E94C90E4A
:101430000E94F90B7093E8066093E70608951F92E7
:101440000F920FB60F9211242F933F934F935F93F8
:101450006F937F938F939F93AF93BF93EF93FF937C
:10146000A89A2091B8023091B9022F5F3F4F309374
:10147000B9022093B8028091BA029091BB02019602
:101480009093BB028093BA02213231055CF08FED5C
:1014900096E065E171E041E00E9473021092B902AA
:1014A0001092B8028091BA029091BB02893C9105DA
:1014B00034F00E94020A1092BB021092BA02FF910D
:1014C000EF91BF91AF919F918F917F916F915F91BC
:1014D0004F913F912F910F900FBE0F901F90189535
:1014E000FF920F931F93DF93CF93CDB7DEB72C9767
:1014F0000FB6F894DEBF0FBECDBF809168008E7F1F
:10150000809368008091BD048093BC0420E030E0AB
:101510009091BC048091BD049817D1F3E091BD0473
:10152000EF5FE093BD04F0E0E454FD4F80818F3F16
:1015300069F72F5F3F4F2330310554F39091BC047E
:101540008091BD049817D1F3E091BD04EF5FE09363
:10155000BD04F0E0E454FD4FF0809091BC04809114
:10156000BD049817D1F3E091BD04EF5FE093BD0493
:10157000F0E0E454FD4F00819091BC048091BD04E3
:101580009817D1F3E091BD04EF5FE093BD04F0E064
:10159000E454FD4F10819091BC048091BD049817D4
:1015A000D1F3E091BD04EF5FE093BD04F0E0E454BB
:1015B000FD4FB0819091BC048091BD049817D1F388
:1015C000E091BD04EF5FE093BD04F0E0E454FD4F13
:1015D000A0819091BC048091BD049817D1F3E09153
:1015E000BD04EF5FE093BD04F0E0E454FD4F708173
:1015F0009091BC048091BD049817D1F3E091BD0493
:10160000EF5FE093BD04F0E0E454FD4F6081909102
:10161000BC048091BD049817D1F3E091BD04EF5F45
:10162000E093BD04F0E0E454FD4F50819091BC0480
:101630008091BD049817D1F3E091BD04EF5FE09372
:10164000BD04F0E0E454FD4F40819091BC048091D2
:10165000BD049817D1F3E091BD04EF5FE093BD04A2
:10166000F0E0E454FD4F30819091BC048091BD04C2
:101670009817D1F3E091BD04EF5FE093BD04F0E073
:10168000E454FD4F20819091BC048091BD049817D3
:10169000D1F3E091BD04EF5FE093BD04F0E0E454CA
:1016A000FD4F8081F9820A831B83BC83AD837E83D7
:1016B0006F83588749873A872B878C87A1ECB6E0E0
:1016C000FE0131968CE001900D928150E1F78091FE
:1016D000C3069091C40697FF02C00E94700A8091D1
:1016E000C1069091C20680529E449093E00680937A
:1016F000DF068091C3069091C40680529E44909369
:10170000E2068093E1068091C5069091C60680525C
:101710009E449093E4068093E306809108019091A3
:1017200009019093EA068093E90680912602909140
:1017300027029093EC068093EB0680910A0190912A
:101740000B019093EE068093ED0680910401909139
:1017500005019093F0068093EF0680916800816008
:10176000809368002C960FB6F894DEBF0FBECDBFF5
:10177000CF91DF911F910F91FF9008950E94C309AF
:101780007298879A86ED96E00E94A5050E94700ADD
:101790008DEC96E00E94A5058091D4069091D50627
:1017A0000E94A60481EC96E00E94C505EFCF0F933E
:1017B0001F93DF93CF93CDB7DEB728970FB6F8947A
:1017C000DEBF0FBECDBF8E010F5F1F4FB8014AE0D5
:1017D00050E00E942313C8010E94200128960FB6F2
:1017E000F894DEBF0FBECDBFCF91DF911F910F9157
:1017F0000895EF92FF920F931F937B018C0120E0DD
:1018000030E040E05FE40E94750F88238CF0C8014F
:10181000B70120E030E040E05FE40E94710D0E94DB
:1018200003109B01AC01205030404040504806C09E
:10183000C801B7010E9403109B01AC01B901CA01A4
:101840001F910F91FF90EF900895A0E0B0E0EBE2C0
:10185000FCE00C94EC12DC012B01FA019C9192301B
:1018600008F439C1EB018881823008F433C1943027
:1018700069F4843009F02FC111969C9111978981E8
:10188000981709F428C1AAE1B1E025C1843009F410
:1018900021C18230A9F4923009F01DC19A01AD0135
:1018A00088E0EA010990AE01E90109929E018150A8
:1018B000C1F7E201898111969C918923818308C136
:1018C000923009F407C112962D903C901397EB01CA
:1018D0008A819B811496AD90BD90CD90DC90179736
:1018E000EC80FD800E811F819101281B390BB9010D
:1018F00037FF04C066277727621B730B60327105C0
:101900000CF061C0121613066CF537014801062E63
:1019100004C096948794779467940A94D2F721E050
:1019200030E040E050E004C0220F331F441F551F39
:101930006A95D2F721503040404050402E213F213F
:1019400040235123211531054105510521F021E0A6
:1019500030E040E050E079018A01E628F7280829C4
:1019600019293CC0232BD1F1260E371E3501460123
:10197000062E04C096948794779467940A94D2F7BD
:1019800021E030E040E050E004C0220F331F441F4C
:10199000551F6A95D2F721503040404050402A21CF
:1019A0003B214C215D21211531054105510521F0D7
:1019B00021E030E040E050E059016A01A628B72854
:1019C000C828D9280BC0821593052CF01C01AA2425
:1019D000BB24650103C0EE24FF24870111969C916E
:1019E000D20111968C91981709F445C0992339F0CA
:1019F000A80197012A193B094C095D0906C0A601F7
:101A000095012E193F09400B510B57FD08C011825B
:101A10003382228224833583468357831DC081E02D
:101A200081833382228288279927DC01821B930BD2
:101A3000A40BB50B84839583A683B7830DC0220FB7
:101A4000331F441F551F2483358346835783828168
:101A500093810197938382832481358146815781C5
:101A6000DA01C9010197A109B1098F5F9F4FAF4FFB
:101A7000BF4328F30BC0918333822282EA0CFB1C04
:101A80000C1D1D1DE482F5820683178383E080838D
:101A9000248135814681578157FF1AC0C901AA2781
:101AA00097FDA095BA2F81709070A070B070569578
:101AB000479537952795822B932BA42BB52B8483A1
:101AC0009583A683B78382819381019693838283D2
:101AD000DF0101C0D201CD01CDB7DEB7E2E10C9448
:101AE0000813A0E2B0E0E7E7FDE00C94F812698388
:101AF0007A838B839C832D833E834F835887E9E0D1
:101B0000EE2EF12CEC0EFD1ECE010196B7010E94C7
:101B1000F4118E010F5E1F4FCE010596B8010E9491
:101B2000F4118A8991E089278A8BC701B801AE0137
:101B3000475E5F4F0E94250C0E941F11A096E6E0B1
:101B40000C941413A0E2B0E0E8EAFDE00C94F81263
:101B500069837A838B839C832D833E834F8358874D
:101B6000F9E0EF2EF12CEC0EFD1ECE010196B7012F
:101B70000E94F4118E010F5E1F4FCE010596B80131
:101B80000E94F411C701B801AE01475E5F4F0E9489
:101B9000250C0E941F11A096E6E00C941413A0E2FD
:101BA000B0E0E5EDFDE00C94EC1269837A838B8361
:101BB0009C832D833E834F835887CE010196BE01BF
:101BC000675F7F4F0E94F411CE010596BE016F5EE4
:101BD0007F4F0E94F4119985923088F08989823074
:101BE000C8F0943019F4823051F404C0843029F4E0
:101BF000923081F48AE191E0C6C0923049F420E04D
:101C00009A858A89981321E02A87CE010996BBC05C
:101C1000823049F420E09A858A89981321E02A8B42
:101C2000CE014196B0C02D843E844F8458886D8883
:101C30007E888F88988CEE24FF248701AA24BB24F9
:101C4000650140E050E060E070E0E0E0F0E0C101FC
:101C500081709070892BE9F0E60CF71C081D191DA6
:101C60009A01AB012A0D3B1D4C1D5D1D80E090E0EB
:101C7000A0E0B0E0E614F7040805190520F481E0BF
:101C800090E0A0E0B0E0BA01A901480F591F6A1F17
:101C90007B1FAA0CBB1CCC1CDD1C97FE08C081E07E
:101CA00090E0A0E0B0E0A82AB92ACA2ADB2A31963F
:101CB000E032F10549F0660C771C881C991C56949B
:101CC000479437942794C3CFFA85EA892B893C89B6
:101CD0008B859C85280F391F2E5F3F4F17C0CA0187
:101CE00081709070892B61F016950795F794E794B1
:101CF00080E090E0A0E0B0E8E82AF92A0A2B1B2B4C
:101D000076956795579547952F5F3F4F77FDE7CFBE
:101D10000CC0440F551F661F771F17FD4160EE0C66
:101D2000FF1C001F111F21503040403090E0590728
:101D300090E0690790E4790760F32B8F3C8FDB011B
:101D4000CA018F779070A070B07080349105A105A2
:101D5000B10561F447FD0AC0E114F1040105110564
:101D600029F0405C5F4F6F4F7F4F40781A8EFE170F
:101D700011F081E08A8F4D8F5E8F6F8F78A383E0A3
:101D8000898FCE0149960E941F11A096E2E10C9422
:101D90000813A8E1B0E0EFECFEE00C94F4126983C4
:101DA0007A838B839C832D833E834F835887B9E04E
:101DB000EB2EF12CEC0EFD1ECE010196B7010E9418
:101DC000F4118E010F5E1F4FCE010596B8010E94DF
:101DD000F4112985223008F47EC03989323010F49C
:101DE000B8017CC08A859A8989278A87243011F0B6
:101DF000223031F4231709F06EC06AE171E06EC041
:101E0000343039F41D861E861F86188A1C861B8670
:101E100004C0323021F484E08987B7015FC02B858C
:101E20003C858B899C89281B390B3C872B87ED844B
:101E3000FE840F851889AD88BE88CF88D88CEA14B7
:101E4000FB040C051D0540F4EE0CFF1C001F111FC8
:101E5000215030403C872B8720E030E040E050E0CC
:101E600080E090E0A0E0B0E460E070E0EA14FB0401
:101E70000C051D0540F0282B392B4A2B5B2BEA184B
:101E8000FB080C091D09B695A79597958795EE0C4B
:101E9000FF1C001F111F6F5F7F4F6F31710531F7FE
:101EA000DA01C9018F779070A070B070803491050D
:101EB000A105B10561F427FD0AC0E114F104010593
:101EC000110529F0205C3F4F4F4F5F4F20782D8741
:101ED0003E874F87588BBE01675F7F4FCB010E94C3
:101EE0001F116896EAE00C941013A8E1B0E0EBE74C
:101EF000FFE00C94F81269837A838B839C832D8393
:101F00003E834F83588789E0E82EF12CEC0EFD1EAE
:101F1000CE010196B7010E94F4118E010F5E1F4F92
:101F2000CE010596B8010E94F4118985823040F0F7
:101F30008989823028F0C701B8010E946C1201C063
:101F40008FEF6896E6E00C941413A8E0B0E0EBEA9B
:101F5000FFE00C94F5129B01AC0183E08983DA0168
:101F6000C9018827B7FD83959927AA27BB27B82ED3
:101F7000211531054105510519F482E089833AC0E4
:101F80008823A9F0203080E0380780E0480780E807
:101F9000580729F460E070E080E09FEC30C0EE2448
:101FA000FF248701E21AF30A040B150B02C0790122
:101FB0008A018EE1C82ED12CDC82CB82ED82FE829A
:101FC0000F831887C801B7010E94D0100197181617
:101FD000190684F4082E04C0EE0CFF1C001F111F0C
:101FE0000A94D2F7ED82FE820F831887C81AD90AA5
:101FF000DC82CB82BA82CE0101960E941F11289604
:10200000E9E00C941113ACE0B0E0E9E0F0E10C94ED
:10201000FC1269837A838B839C83CE010196BE0177
:102020006B5F7F4F0E94F4118D81823061F18230AD
:1020300050F1843021F48E81882351F12EC02F81FC
:10204000388537FD20C06E812F3131051CF06623A5
:10205000F9F023C08EE190E0821B930B29853A852D
:102060004B855C8504C056954795379527958A958D
:10207000D2F76623B1F050954095309521953F4FAA
:102080004F4F5F4F0EC020E030E040E050E009C00D
:102090002FEF3FEF4FEF5FE704C020E030E040E07C
:1020A00050E8B901CA012C96E2E00C941813A8E09C
:1020B000B0E0EDE5F0E10C94F4127B018C016115C8
:1020C00071058105910519F482E0898360C083E080
:1020D00089838EE1C82ED12CDC82CB82ED82FE82F8
:1020E0000F831887C801B7010E94D010FC013197F7
:1020F000F7FF3BC0222733272E1B3F0B57016801F8
:10210000022E04C0D694C794B794A7940A94D2F729
:1021100040E050E060E070E081E090E0A0E0B0E0FE
:1021200004C0880F991FAA1FBB1F2A95D2F70197D9
:10213000A109B1098E219F21A023B1230097A105F8
:10214000B10521F041E050E060E070E04A295B29F0
:102150006C297D294D835E836F8378878EE190E0C3
:102160008E1B9F0B9C838B8312C0309781F00E2EA9
:1021700004C0EE0CFF1C001F111F0A94D2F7ED8261
:10218000FE820F831887CE1ADF0ADC82CB821A8286
:10219000CE0101960E941F112896EAE00C941013BC
:1021A000EF92FF920F931F937B018C0180E0E81662
:1021B00080E0F80681E0080780E0180788F48FEFD8
:1021C000E816F1040105110531F028F088E090E0EF
:1021D000A0E0B0E017C080E090E0A0E0B0E012C066
:1021E00080E0E81680E0F80680E0080781E0180744
:1021F00028F088E190E0A0E0B0E004C080E190E049
:10220000A0E0B0E020E230E040E050E0281B390BD5
:102210004A0B5B0B04C016950795F794E7948A95D3
:10222000D2F7F701EE5DFE4F8081281B310941098D
:102230005109C9011F910F91FF90EF900895DF920E
:10224000EF92FF920F931F93FC01E480F5800681CB
:102250001781D1808081823048F480E090E0A0E155
:10226000B0E0E82AF92A0A2B1B2BA5C0843009F418
:102270009FC0823021F4EE24FF24870105C0E114C1
:10228000F1040105110519F4E0E0F0E096C0628167
:1022900073819FEF623879070CF05BC022E83FEF53
:1022A000261B370B2A3131052CF020E030E040E0CE
:1022B00050E02AC0B801A701022E04C076956795A8
:1022C000579547950A94D2F781E090E0A0E0B0E0FE
:1022D00004C0880F991FAA1FBB1F2A95D2F7019728
:1022E000A109B1098E219F21A023B1230097A10547
:1022F000B10521F081E090E0A0E0B0E09A01AB01EF
:10230000282B392B4A2B5B2BDA01C9018F77907070
:10231000A070B07080349105A105B10539F427FF94
:1023200009C0205C3F4F4F4F5F4F04C0215C3F4FBF
:102330004F4F5F4FE0E0F0E02030A0E03A07A0E030
:102340004A07A0E45A0710F0E1E0F0E079018A01C1
:1023500027C06038710564F5FB01E158FF4FD801D3
:10236000C7018F779070A070B07080349105A1057F
:10237000B10539F4E7FE0DC080E490E0A0E0B0E0E4
:1023800004C08FE390E0A0E0B0E0E80EF91E0A1F61
:102390001B1F17FF05C016950795F794E794319614
:1023A00087E016950795F794E7948A95D1F705C0CD
:1023B000EE24FF248701EFEFF0E06E2F679566278C
:1023C0006795902F9F77D794DD24D7948E2F86958D
:1023D000492F462B582F5D29B701CA011F910F9134
:1023E000FF90EF90DF900895FC01DB014081518167
:1023F0002281622F6F7770E0221F2227221F938194
:10240000892F880F822B282F30E0991F9927991F39
:1024100011969C93119721153105A9F54115510588
:102420006105710511F482E037C082E89FEF1396D1
:102430009C938E9312979A01AB0167E0220F331F92
:10244000441F551F6A95D1F783E08C930DC0220F6E
:10245000331F441F551F12968D919C91139701971E
:1024600013969C938E931297203080E0380780E07B
:10247000480780E4580758F314962D933D934D93E5
:102480005C93179708952F3F310579F44115510555
:102490006105710519F484E08C93089564FF03C00D
:1024A00081E08C9312C01C9210C02F5730401396BD
:1024B0003C932E93129783E08C9387E0440F551F33
:1024C000661F771F8A95D1F7706414964D935D93BC
:1024D0006D937C93179708951F93DC01FB019C91EA
:1024E000923008F447C08081823008F443C09430B1
:1024F00051F411961C91843099F58181682F70E018
:10250000611B71093FC0843021F0923031F4823078
:10251000B9F18181882389F12DC011961C91119701
:102520008230F1F081811817D9F412962D913C91E7
:102530001397828193818217930794F028173907A4
:10254000BCF014968D919D910D90BC91A02D24818D
:10255000358146815781281739074A075B0718F4E8
:10256000112341F00AC082179307A407B50740F46E
:10257000112319F061E070E005C06FEF7FEF02C03A
:1025800060E070E0CB011F91089597FB092E0726AC
:102590000AD077FD04D00CD006D000201AF4709534
:1025A00061957F4F0895F6F7909581959F4F089517
:1025B000AA1BBB1B51E107C0AA1FBB1FA617B70769
:1025C00010F0A61BB70B881F991F5A95A9F7809585
:1025D0009095BC01CD0108952F923F924F925F924A
:1025E0006F927F928F929F92AF92BF92CF92DF9223
:1025F000EF92FF920F931F93CF93DF93CDB7DEB788
:10260000CA1BDB0B0FB6F894DEBF0FBECDBF09941B
:102610002A88398848885F846E847D848C849B8472
:10262000AA84B984C884DF80EE80FD800C811B8180
:10263000AA81B981CE0FD11D0FB6F894DEBF0FBEAF
:10264000CDBFED010895FB019F01E8944230C4F035
:102650004532B4F44A3029F497FB1EF490958195E5
:102660009F4F642F77270E94D812805D8A330CF029
:10267000895D8193CB010097A1F716F45DE2519338
:102680001082C9010C944413DC01FC01672F719185
:102690007723E1F7329704C07C916D937083629148
:0C26A000AE17BF07C8F30895F894FFCFF1
:1026AC000100204E7800AC0D1E00FA002E000E0129
:1026BC007779763030636F6E747200000000000022
:1026CC0000000001020203030303040404040404D5
:1026DC0004040505050505050505050505050505A0
:1026EC000505060606060606060606060606060680
:1026FC00060606060606060606060606060606066E
:10270C00060607070707070707070707070707074F
:10271C00070707070707070707070707070707073D
:10272C00070707070707070707070707070707072D
:10273C00070707070707070707070707070707071D
:10274C0007070808080808080808080808080808FF
:10275C0008080808080808080808080808080808ED
:10276C0008080808080808080808080808080808DD
:10277C0008080808080808080808080808080808CD
:10278C0008080808080808080808080808080808BD
:10279C0008080808080808080808080808080808AD
:1027AC00080808080808080808080808080808089D
:1027BC00080808080808080808080808080808088D
:0227CC000808FB
:00000001FF
