:100000000C9456000C9473000C9473000C947300C1
:100010000C9473000C9473000C9473000C94730094
:100020000C9473000C9456050C9473000C9473009C
:100030000C9473000C9473000C9473000C94730074
:100040000C9473000C9473000C9473000C94730064
:100050000C9473000C9473000C9473000C94730054
:100060000C9473000C94AD000C94D2000C947300AB
:100070000C9473000C9473000C9473000C94730034
:100080000C9473000C9473000C9473000C94730024
:100090000C9473000C9473000C9473000C94730014
:1000A0000C9473000C9473000C94730011241FBE05
:1000B000CFEFDAE0DEBFCDBF13E0A0E0B1E0ECE0CF
:1000C000F0E102C005900D92A63CB107D9F718E007
:1000D000A6ECB3E001C01D92A230B107E1F70E9487
:1000E00059070C9404080C940000E1E6F0E080E865
:1000F00080831082089580E885BF85BF0895E1E67A
:10010000F0E080E8808310826A9A6E9A729A769AFA
:10011000549A559A569A579A5C9A5D9A5E9A5F9A43
:1001200085BF85BF08958091B7038093CC00E9EC2B
:10013000F0E0808188618083AAECB0E08C918668D1
:100140008C938081806880831092CA051092C905C3
:100150001092CC071092CB0708951F920F920FB602
:100160000F9211248F939F93EF93FF939091CE0062
:10017000E091C905EF5FE093C9058091CA05E817D2
:1001800021F48091CA058093C905F0E0E753FC4F44
:100190009083FF91EF919F918F910F900FBE0F90E1
:1001A0001F9018951F920F920FB60F9211248F93E4
:1001B0009F93EF93FF939091CB078091CC07981773
:1001C00061F0E091CC07EF5FE093CC07F0E0E553FE
:1001D000FA4F80818093CE0005C08091C9008F7D49
:1001E0008093C900FF91EF919F918F910F900FBE67
:1001F0000F901F9018959091C9058091CA05981786
:10020000D1F3E091CA05EF5FE093CA05F0E0E75350
:10021000FC4F80810895282F9091CB079F5F80919C
:10022000CC079817E1F3E92FF0E0E553FA4F20836C
:100230009093CB078091C90080628093C900089594
:10024000CF93DF93EC0103C021960E940B018881BC
:100250008823D1F7DF91CF9108959091C9058091BE
:10026000CA0520E0981321E0822F08958091C905E6
:100270002091CA0590E081509E4F821B91096FEF3B
:1002800071E00E94AC0708958091CA058093C9056A
:100290000895E1E8F0E080818E7F80838081826034
:1002A000808380818B7F8083A1E9B0E08C918E7FF9
:1002B0008C938C9182608C938C918B7F8C938081BA
:1002C00080618083808188608083E0E8F0E08081C5
:1002D0008260808380818E7F80832091B9033091FA
:1002E000BA033093870020938600808180688083E2
:1002F00080818F7B8083109289001092880080819A
:100300008062808380818F7E808310928B00109228
:100310008A0080818860808380818B7F80831092B7
:100320008D0010928C008C9180618C938C918860F0
:100330008C93E0E9F0E080818260808380818E7F11
:10034000808330939700209396008081806880831B
:1003500080818F7B80831092990010929800259A5B
:10036000269A279A3E9A089527E0613D720718F071
:1003700060ED77E006C023E0683E720710F468EE97
:1003800073E08230910589F08330910518F401976C
:10039000D1F406C08330910569F00497A1F40FC031
:1003A0007093890060938800089570938B00609328
:1003B0008A00089570938D0060938C000895709367
:1003C0009900609398000895809164008B7F8093DA
:1003D000640084B1876084B983E58CBD80ED97E0CB
:1003E00028EC30E0F9013197F1F70197D9F708953A
:1003F0004798805E8EBD0DB407FEFDCF20E030E053
:100400000AC0FB01E20FF31F80818EBD0DB407FE11
:10041000FDCF2F5F3F4F241735079CF3479A089570
:10042000AC01479880EA8EBD0DB407FEFDCF20E0F9
:1004300030E00AC0FA01E20FF31F80818EBD0DB4D7
:1004400007FEFDCF2F5F3F4F261737079CF3479AD4
:10045000089547988EBD0DB407FEFDCF20E030E033
:100460009FEF0BC09EBD0DB407FEFDCF8EB5FB0107
:10047000E20FF31F80832F5F3F4F2417350794F35C
:10048000479A08959C01AB018BE0B9010E94F801E5
:100490000895479881EE8EBD0DB407FEFDCF479AB3
:1004A0000895479882EE8EBD0DB407FEFDCF479AA2
:1004B0000895DF93CF930F92CDB7DEB78BE3898397
:1004C00080E0BE016F5F7F4F41E050E00E94F80185
:1004D00080EA9FE00197F1F7289A0F90CF91DF9182
:1004E0000895289808952F923F924F925F926F92AD
:1004F0007F928F929F92AF92BF92CF92DF92EF92B4
:10050000FF920F931F93DF93CF9300D000D0CDB70E
:10051000DEB75C016B014C831982289800E07E01F4
:100520000894E11CF11C32E0232E312C2C0E3D1ED0
:1005300020EA422E2FE0522E90E4692E9FE1792E80
:1005400083E0882E912C8C0E9D1E40C00E94490293
:1005500080E2898387E0B70141E050E00E94F80122
:1005600080E1B60145E050E00E94F8018AE0B60162
:1005700045E050E00E94F8018AE38A8380E0B101FF
:1005800041E050E00E94F8016091CD07C50170E0A4
:100590000E941002289AC2010197F1F72898C3011E
:1005A0000197F1F71B8287E0B40141E050E00E941F
:1005B00029021B81107280E1898387E0B70141E045
:1005C00050E00E94F801112339F40F5F8C81081765
:1005D00008F4BCCF10E008C080E2898387E0B7014F
:1005E00041E050E00E94F8010E945902812F111150
:1005F00081E00F900F900F900F90CF91DF911F919E
:100600000F91FF90EF90DF90CF90BF90AF909F90B1
:100610008F907F906F905F904F903F902F900895B4
:1006200041E00E9473020895DF93CF930F92CDB7FC
:10063000DEB78FEF898387E0BE016F5F7F4F41E0B8
:1006400050E00E942902298130E046E03695279546
:100650004A95E1F721703070C9010F90CF91DF9179
:100660000895DF93CF930F92CDB7DEB78FEF8983D5
:1006700087E0BE016F5F7F4F41E050E00E9429029A
:100680008981282F30E02E7030702115310511F04E
:1006900021E030E0C9010F90CF91DF910895DF9301
:1006A000CF930F92CDB7DEB7FC0128988FEF8083F0
:1006B000479881E68EBD0DB407FEFDCF20E030E007
:1006C00009C080818EBD0DB407FEFDCF8EB581932C
:1006D0002F5F3F4F8091CD0790E0281739078CF3AB
:1006E000479A80EA9FE00197F1F70E943103892B36
:1006F00051F080E4898387E0BE016F5F7F4F41E066
:1007000050E00E94F8010E9459020F90CF91DF91B2
:100710000895DF93CF930F92CDB7DEB78FEF898324
:1007200087E1BE016F5F7F4F41E050E00E942902E8
:10073000298130E03695279521703070C9010F90DE
:10074000CF91DF910895CF93DF93EC018091680002
:100750008E7F8093680003C0CE010E944F030E94E9
:100760001403892BC9F78091680081608093680029
:10077000DF91CF910895EF92FF920F931F93DF9334
:10078000CF930F92CDB7DEB77C016093CD0788EE93
:1007900093E028EC30E0F9013197F1F70197D9F7B0
:1007A0000E94E4013F9A209A88E3898380E08E01C9
:1007B0000F5F1F4FB80141E050E00E94F8018091A7
:1007C000CD07898382E1B80141E050E00E94F80141
:1007D00083E0898381E0B80141E050E00E94F801A4
:1007E000198284E0B80141E050E00E94F801C7019D
:1007F00065E070E00E9442020E9459020F90CF9182
:10080000DF911F910F91FF90EF900895ECE7F0E0DA
:10081000808180648083EEE7F0E08081836F808355
:10082000EAE7F0E080818668808308959C018091EA
:100830007C00807E80937C0024303105D9F0253007
:10084000310538F42115310571F02130310519F5E4
:100850000DC026303105B1F02630310578F0273053
:100860003105C9F413C080917C0013C080917C00D5
:1008700081600FC080917C0084600BC080917C00FF
:10088000856007C080917C00866003C080917C00F9
:10089000876080937C0080917A00806480937A00E6
:1008A00080917A0084FFFCCF80917A0080618093F0
:1008B0007A002091780030917900C90108959091D3
:1008C0007C0080917C00807E80937C0080917C0005
:1008D000806C80937C0080917C008F6180937C0091
:1008E00080917A00806480937A0080917A0084FFFE
:1008F000FCCF80917A00806180937A0080917A00A9
:10090000806480937A0080917A0084FFFCCF80918C
:100910007A00806180937A0090937C002091780027
:1009200030917900C90108950F931F93CF93DF93FE
:100930008C01C0E0D0E005C080E091E00E94200181
:100940002196C017D107C4F3DF91CF911F910F916A
:1009500008958091C5038236A1F1833620F4813653
:1009600009F0A3C007C0833609F44EC0843609F0ED
:100970009CC083C083E091E00E94200183E291E06B
:100980000E94200188E491E00E94200184E691E029
:100990000E94200182E891E00E94200182EA91E019
:1009A0000E94200184EC91E00E94200185ED91E0FD
:1009B0000E94200184EE91E00E94200186E090E0F8
:1009C00059C088EF91E00E94200183E291E00E94EB
:1009D000200188E491E00E94200187E092E00E94DB
:1009E00020018DE192E00E94200184E392E00E94C8
:1009F00020018EE492E00E94200185ED91E00E94AA
:100A0000200187E090E036C08EE592E00E94200150
:100A100083E291E00E94200188E491E00E9420019D
:100A200087E092E00E9420018DE192E00E94200187
:100A30008BE692E00E94200181E892E00E94200172
:100A400087E992E00E9420018FEA92E00E94200153
:100A500087EC92E00E9420018DED92E00E9420013F
:100A600083EF92E00E9420018EE492E00E94200138
:100A700082E090E00E949404089585E193E00E9452
:100A8000200183E291E00E94200188E491E00E942D
:100A9000200187E293E00E9420018EE492E00E9410
:100AA00020018AE090E00E94940408951F920F9222
:100AB0000FB60F9211242F933F934F935F936F9331
:100AC0007F938F939F93AF93BF93EF93FF931C9963
:100AD00008C08BB190E489278BB98EEC97E00E9417
:100AE000A303FF91EF91BF91AF919F918F917F9160
:100AF0006F915F914F913F912F910F900FBE0F908B
:100B00001F9018950E947F000E9493000E94060487
:100B10008BEB93E067E10E94BB03809168008160EA
:100B20008093680010926B0080916B0080618093CD
:100B30006B0078942C980E941403892B21F08EEC82
:100B400097E00E94A30386E990E09093D7078093F3
:100B5000D607089589EF97E060EC73E041E00E94CA
:100B60007302089581E090E00E94160420E032E0D4
:100B7000281B390BC9010396079728F41092FD072B
:100B80001092FC0704C03093FD072093FC0780E01F
:100B900090E00E9416049C0120503240C901039647
:100BA000079728F41092FB071092FA0704C03093BD
:100BB000FB072093FA0785E090E00E94160420E0EE
:100BC00032E0281B390BC9010396079728F41092CD
:100BD000FF071092FE0704C03093FF072093FE0723
:100BE00084E090E00E9416049C0182E021303807E6
:100BF0003CF02050324030930108209300080895C3
:100C0000109201081092000808950F931F93DF932C
:100C1000CF93CDB7DEB728970FB6F894DEBF0FBEDF
:100C2000CDBF8E010F5F1F4FB8014AE050E00E9418
:100C3000D307C8010E94200128960FB6F894DEBFA2
:100C40000FBECDBFCF91DF911F910F91089590916D
:100C5000C503923609F463C0933620F4913609F047
:100C600027C107C0933609F480C0943609F020C12B
:100C7000D8C08D3609F44FC08E3680F4873609F41B
:100C8000DCC0883638F4803209F4D7C0843609F0E5
:100C90000FC13AC08A3609F00BC13FC0823709F450
:100CA000CCC0833709F4C9C0803709F001C15BC0EB
:100CB00085E493E00E9420018091CE079091CF07B8
:100CC0000E9405068CE493E00E9420018091D007E9
:100CD0009091D1070E94050688E593E00E942001CB
:100CE0008091D2079091D3070E94050683E693E096
:100CF0000E9420018091D6079091D7070E94050697
:100D000080E091E00E9420019091C9058091CA0580
:100D1000981771F2089582E681C084E67FC084331B
:100D200009F48BC0853398F4813309F486C082338B
:100D300038F4803209F481C08D3209F0B9C07DC029
:100D4000823309F47AC0833309F0B2C076C08037A9
:100D500051F0813708F06FC08D3309F46EC08D36C5
:100D600009F0A6C05AC083E659C08C3609F465C0A4
:100D70008D36B0F4843609F449C0853650F48D328E
:100D800009F45BC08D3309F458C0803209F090C07B
:100D900019C0893609F451C08B3609F089C04DC09D
:100DA000803709F44AC0813730F48D36B1F18F367F
:100DB00009F07EC042C0833709F43FC0853709F08F
:100DC00077C03BC080E239C081E793E00E942001F8
:100DD0008091D8079091D9070E9405068AE793E091
:100DE0000E9420018091DC079091DD070E9405069A
:100DF00086E893E00E9420018091DE079091DF0752
:100E00000E94050680E091E00E9420019091C905B2
:100E10008091CA059817C1F2089581E68093C503B1
:100E200008958D3609F441C08E3628F4803229F0B9
:100E30008436F1F533C08337D9F58093F9070895E7
:100E40000E94B20585E993E00E9420018091FA0793
:100E50009091FB070E94050688E593E00E9420011F
:100E60008091FC079091FD070E9405068EE993E0B2
:100E70000E9420018091FE079091FF070E940506C5
:100E800088EA93E00E942001809100089091010877
:100E90000E94050680E091E00E9420019091C90522
:100EA0008091CA05981761F2089581E68093C50381
:100EB0000895DF92EF92FF920F931F93CF93DF93EA
:100EC0000E9482055D98729881E68093C503E0E3F5
:100ED000DE2EC0E1D7E270E1E72E00E460E2F62EFC
:100EE0000E94A904D092F9079091C9058091CA0582
:100EF000981711F410E30FC09091C9058091CA05AD
:100F00009817D1F3E091CA05EF5FE093CA05F0E0CE
:100F1000E753FC4F10810E94B205812F0E942706E3
:100F20000E94AA05CE010197F1F78091D607909112
:100F3000D70784369105A4F68BB18E258BB98EB177
:100F400080278EB98BB180588BB98BB180278BB934
:100F50008BB18F258BB9C4CF97FB092E07260AD0FA
:100F600077FD04D00CD006D000201AF4709561955E
:100F70007F4F0895F6F7909581959F4F0895AA1B8E
:100F8000BB1B51E107C0AA1FBB1FA617B70710F074
:100F9000A61BB70B881F991F5A95A9F780959095A6
:100FA000BC01CD010895FB019F01E8944230C4F0DB
:100FB0004532B4F44A3029F497FB1EF4909581959C
:100FC0009F4F642F77270E94BF07805D8A330CF004
:100FD000895D8193CB010097A1F716F45DE25193EF
:100FE0001082C9010C94F407DC01FC01672F719198
:100FF0007723E1F7329704C07C916D9370836291FF
:0C100000AE17BF07C8F30895F894FFCFA7
:10100C000A0D007E57797665726E20517561647297
:10101C006F746F7220436F6E74726F6C6C65727E3E
:10102C000A0D0073203D20535441525420517561D8
:10103C0064726F746F7220284D6F746F72205370CE
:10104C00696E7570290A0D00535041434542415257
:10105C00203D20454D455247454E43592053544F52
:10106C00500A0D0072203D20546F67676C65204F4D
:10107C006E2D626F61726420526564204C45440A87
:10108C000D0067203D20546F67676C65204F6E2DF7
:10109C00626F61726420477265656E204C45440A2C
:1010AC000D0064203D205072696E7420577976656E
:1010BC00726E2054656C656D657472792044617430
:1010CC00610A0D006D203D204D6F746F72204D65CF
:1010DC006E750A0D0070203D20504944204D656E00
:1010EC00750A0D006A203D204A6F79737469636B31
:1010FC00204D656E750A0D007E4D6F746F72204D1C
:10110C00656E757E0A0D003D203D20496E6372654B
:10111C00617365205468727573740A0D002D203D3F
:10112C0020446563726561617365205468727573E0
:10113C00740A0D00312C322C332C34203D20537486
:10114C00617274204D6F746F7220580A0D006D20FF
:10115C003D204D61696E204D656E750A0D007E5007
:10116C004944204D656E757E0A0D0070203D204966
:10117C006E6372656173652050206761696E0A0D3C
:10118C00006F203D204465637265617365205020BB
:10119C006761696E0A0D0069203D20496E637265B6
:1011AC00617365205049442042414E440A0D00753C
:1011BC00203D20446563726561736520504944206D
:1011CC0042414E440A0D006C203D20496E6372650D
:1011DC006173652044206761696E0A0D006B203DC8
:1011EC002044656372656173652044206761696E94
:1011FC000A0D0064203D205072696E74206F757466
:10120C002050206761696E20616E64204420676104
:10121C00696E0A0D007E4A6F79537469636B204DB9
:10122C00656E757E0A0D0064203D205072696E74E7
:10123C00206F7574204A6F79737469636B204461F5
:10124C0074610A0D00596177203D20002020205048
:10125C0069746368203D2000202020526F6C6C2044
:10126C003D200020202042617474657279203D205D
:10127C0000505F677972203D2000202020445F677A
:10128C007972203D20002020205049442042414EBC
:10129C0044203D20005069746368203D20002020CC
:1012AC0020596177203D20002020205468726F74F3
:1012BC00746C65203D20000100204E636F6E7472CB
:0612CC00777976303061F5
:00000001FF
