:020000020000FC
:1000000027C074C00000000000000000B8C000005D
:10001000BAC0C3C000000000000000000D0A544731
:100020005950323031305F343136487A5243496E5C
:1000300074657276616C526174655F50504D2D4DE0
:100040006F642D6F6E6C795F4E6F43616C000D0AAB
:1000500004E00EBF0FE50DBF00E008BB07E007BBE3
:1000600000E005BB00E004BB00E002BB08E301BB0D
:1000700002E003BF02E00EBD772788279927BB2740
:10008000A0E600270D93A038E8F384D204E6B02E52
:10009000F8D0F7D0CAD0E9D0CBD0E7D0CCD0E5D0DB
:1000A00001E0302E0EEF202E00E0C02ED02E05E114
:1000B00008BF09BF789403E005BF00E40BBF2AE046
:1000C00083FFFECF0091790010917A00877F005165
:1000D0001440A8F72A95A1F7F894B0D0AFD0AED0CD
:1000E00078940EE100937B0051D16CC21FB6442777
:1000F0004BBF45B740FF1DC0829B3DC042E045BF9E
:100100004CB55DB5742E852E9F7B60917700461BA4
:1001100060917800560B483A61E6560730F4483C47
:1001200060E0560710F0906426C0BB2021F1BA941D
:1001300022C0829920C043E045BF83FD1CC04CB55E
:100140005DB5409377005093780096FF14C09F7B75
:10015000471958094093790050937A00483968E06C
:10016000560718F7403263E05607F8F288604B2DC7
:10017000443609F0B39450E45BBF1FBE18951FB618
:100180007E7F1FBE18951FB67068EE2009F0EA94B6
:10019000BB2009F0BA941FBE18951FB676FD26C085
:1001A000906145999F7E422D562D541730F43A9414
:1001B00059F451E0352E4A9506C031F03A9421F4B5
:1001C00051E0352E4395242E706474FF03C081FFE7
:1001D000C09807C075FF03C081FFC29802C081FFAD
:1001E000C198422D4C59409542BF1BC0422D42BF81
:1001F0007F7B74FF03C080FFC09A07C075FF03C0F8
:1002000080FFC29A02C080FFC19A4D3918F4826003
:100210008E7F07C04E3F18F08D7F816002C08D7FBA
:100220008E7F93FD81601FBE189538EC10E509C0E4
:1002300034EB14E606C030EA18E703C034E618ECE5
:1002400000C0002702BF949AC29A02B70032E9F7B1
:100250009498C29828E0002702BF02B70317E9F775
:100260002A95C9F71A9569F708951FE028E0002735
:1002700002BF02B70F3FE9F72A95C9F71A95B1F700
:10028000089510E828E0002702BF02B70F3FE9F702
:100290002A95C9F71A95B1F7089530E03BBF30E0D1
:1002A0003EBD32E00CB51DB53EBD08958F7E83FF87
:1002B00015C00091790010917A00877F0051144099
:1002C00010F4002711271695079516950795169592
:1002D0000795202F045608F024E6F22F08958F7713
:1002E00008958F7D77FF17C07F7772FF06C07B7FF1
:1002F0004C2D433090F4C39403C0CC2009F0CA9431
:1003000071FF06C07D7F4D2D443628F4D39403C081
:10031000DD2009F0DA9417D10895F89499CE8F7BF7
:1003200020916C0010916B0000916A00011B0093FA
:100330006A0000916B00020B00936B0000916C004F
:10034000004000936C0020916900109168000091BA
:10035000670026951795079526951795079520937D
:100360006900209368002093670020916A00200FA5
:1003700020936A0020916B00211F20936B0000E006
:1003800020916C00201F20936C000895C0E8DBEBE7
:10039000C0937100D09372002FEF3FE120936D0066
:1003A00030936E0020936F0030937000E1E0E09393
:1003B00066003FEF309365002FEF209364000895AF
:1003C0006CDF00936000109361000C0F1D1F35E07F
:1003D00039BF1BBD0ABD716035E139BF30E43BBF99
:1003E0000091640010916500E09166000093730035
:1003F00010937400EE2329F03FEF30937300309395
:100400007400E69517950795E69517950795209141
:10041000640030916500E0916600201B310BE040E4
:100420000091600010916100C0916200D091630062
:1004300000936200109363000C1B1D0B009375006A
:1004400010937600200F311F10E0E11FEE2361F4BE
:10045000332321F0313041F42C3430F431E02CE4FA
:10046000FF2011F40FEFF02E20936400309365000D
:10047000E0936600E23008F099DF00916700020F18
:100480000093670000916800031F009368000091CB
:1004900069000E1F00936900E69537952795E6954C
:1004A00037952795E69537952795E69537952795BE
:1004B00020936D0030936E0020936F003093700096
:1004C0000895C0916D00D0916E007ADF089570FD9F
:1004D000FECFD0917400C0917300DFDE0C0F1D1FA2
:1004E00035E039BF1BBD0ABD716035E139BF30E46D
:1004F0003BBF0895D2DEC0916F00D09170000C0F09
:100500001D1F25E029BF1BBD0ABD716025E129BF64
:1005100030E43BBF84FDCADE85FDE3DE86FDFFDE01
:1005200070FDFECF0895C0917100D091720048DF38
:100530000CB50F70D01BDC3808F4DBEBD0937200E5
:100540003BD03AD008950F2F0D1908F401E0109117
:100550006600112321F410916500103438F0916089
:10056000926019E1011798F0012F11C095FF05C0A5
:1005700027E0021710F0022F0AC0103238F09E7FD9
:10058000926012E3011718F0012F01C09C7F0095C3
:10059000602E0895F1E00EEF202E602E00E008BBE3
:1005A00000E002BB01E0302E8160977F90620895E9
:1005B00004E00A95F1F7089576FDFECF76FFFECFB1
:1005C00008950895E7DFFDDF71DEF230E8F302E021
:1005D0000095602E379800B7086000BF332700E011
:1005E00008BB00E002BB0BE10A95F1F750D157D1EF
:1005F0009B7F00E000937C0008E2E02EC7DE93DFE3
:1006000094FF11C070FD02C0946014C0D5DF94FD4A
:10061000F9CF00E000937C00FED007D119D146DE6F
:100620005EDE81DF31C070FD02C0946003C0C4DFB4
:1006300094FFF9CFF0D077DF94FD08C070FD02C0C1
:1006400094600BC0B9DF94FFF9CF07C070FD02C002
:10065000946003C0B1DF94FDF9CFE7D027DE63DFFC
:1006600094FF08C070FD02C094600BC0A5DF94FD2C
:10067000F9CF07C070FD02C0946003C09DDF94FFF6
:10068000F9CFE6D02CDE4FDF94FD08C070FD02C02C
:1006900094600BC091DF94FFF9CF07C070FD02C0DA
:1006A000946003C089DF94FDF9CFDCD03CDF94FF78
:1006B00008C070FD02C094600BC07EDF94FDF9CFCE
:1006C00007C070FD02C0946003C076DF94FFF9CFCD
:1006D000DED007DE28DF94FD08C070FD02C0946004
:1006E0000BC06ADF94FFF9CF07C070FD02C09460B1
:1006F00003C062DF94FDF9CFD2D0022D0E3F09F482
:1007000061CFBB2009F474C0EE2009F45BCF0091E7
:100710006600002321F400916500003250F0009142
:100720007C0092FD0027039500937C009B7F0C3397
:1007300038F00FEFF02EC5DECCDE9F7D9F7702C034
:10074000F2DE5ECF58D070FF44C05DD070FF41C074
:100750008064D0DE60D0B5DEBADE55D070FF39C01F
:100760004AD070FF36C08061C5DE5FD0AADEAFDE42
:1007700042D070FF2EC047D070FF2BC08068BADE19
:1007800067D09FDEA4DE3FD070FF23C034D070FF5F
:1007900020C0B0DE67D095DE9ADE2DD070FF19C084
:1007A00032D070FF16C08062A5DE71D08ADE8FDE87
:1007B0002AD070FF0EC01FD070FF0BC09BDE6FD021
:1007C00080DE85DEBB20A1F000916600002321F0D1
:1007D00090689062977FF8CE977FFF2041F0FA945F
:1007E00029F00F2D013011F0023009F49860AACFE2
:1007F000F894D0DE2DCC70FF0895459BFCCFD8DE59
:10080000459BF9CF089570FF08954599FCCFD0DE40
:100810004599F9CF0895949880FF959A04E007B917
:10082000379800B7086000BF089504E109BF0000D1
:100830007F7D7F7E81FD02C076FD03C0C09880FF72
:10084000C19A05E109BF00B7077F00BF379A089535
:10085000959880FF939A05E007B9379800B708602C
:1008600000BF089504E109BF000070627F7E81FD32
:1008700002C076FD03C0C19880FFC29A05E109BF9E
:1008800004E007B9379800B7086000BF089593984F
:1008900080FF949A00B7077F00BF379A089504E15C
:1008A00009BF00007F7D706181FD02C076FD03C03D
:1008B000C29880FFC09A05E109BF05E007B93798E3
:0808C00000B7086000BF0895B5
:00000001FF
